:020000040800F2
:10000000D00F00209D010008C31B0008BB1B000887
:10001000BF1B000885020008252F00080000000013
:10002000000000000000000000000000C92D0008D2
:100030004F19000800000000511C0008B92E0008EC
:10004000B7010008B7010008B7010008B7010008B0
:10005000B7010008B7010008B7010008B7010008A0
:10006000B7010008B7010008B7010008B701000890
:10007000B7010008B7010008B7010008B701000880
:10008000B7010008B7010008B7010008B701000870
:1000900089020008B7010008B7010008B70100088D
:1000A000B7010008B7010008B7010008B701000850
:1000B000B7010008B7010008B7010008B701000840
:1000C000B7010008B7010008B7010008B701000830
:1000D000B7010008B7010008B7010008B701000820
:1000E000B7010008B7010008B7010008B701000810
:1000F000B7010008B7010008B7010008B701000800
:10010000B7010008F11E0008B7010008B701000898
:10011000B7010008B7010008B7010008B7010008DF
:10012000B7010008B7010008B7010008E916000888
:10013000B7010008B7010008B7010008B7010008BF
:10014000B7010008B7010008B7010008B7010008AF
:10015000B7010008B7010008B7010008B70100089F
:10016000B7010008B7010008B7010008B70100088F
:10017000B7010008B7010008B7010008B70100087F
:10018000B7010008B7010008DFF80CD000F068F8EC
:100190000048004751480008D00F0020064880471B
:1001A00006480047FEE7FEE7FEE7FEE7FEE7FEE75C
:1001B000FEE7FEE7FEE7FEE7BD2E00088901000826
:1001C0002DE9F05F0546002092469B46884606468C
:1001D000814640241BE0284641464746224600F01F
:1001E0002FF853465A46C01A914110D3114618466B
:1001F000224600F016F82D1A67EB01084F462246FA
:100200000120002100F00DF817EB00094E41201EDF
:10021000A4F10104DFDC484631462A464346BDE8E6
:10022000F09F202A04DB203A00FA02F100207047F8
:100230009140C2F1200320FA03F319439040704724
:10024000202A04DB203A21FA02F00021704721FA2B
:1002500002F3D040C2F12002914008431946704792
:10026000064C074D06E0E06840F0010394E8070003
:1002700098471034AC42F6D3FFF78AFFC451000808
:10028000E451000800BFFEE710B50221084800F065
:10029000B3F901280BD1074A0021054800F0FFFD02
:1002A0000221034800F08CF801200349087010BDBA
:1002B00000640040DC0800206C0000200EB5012125
:1002C000480601F0D7FC00F06BF800F03BF81B4843
:1002D00000F0F2F8684600F06BFF00208DF8060091
:1002E0008DF807008DF808008DF809008DF80A00D8
:1002F00001208DF80B0000208DF802000B208DF8F6
:10030000040007208DF8050000208DF8030004206C
:10031000ADF800006946094800F037FD08488179CA
:10032000022000F0A1F80648C179002000F09CF8F6
:1003300001220221014800F01FFD0EBD00640040B3
:100340006D0000201CB501214FF4C07001F082FC4B
:1003500009220D21104801F00DFC092211460F4819
:1003600001F008FC02208DF8040000208DF8060042
:1003700001208DF8070002208DF805000003009091
:100380006946054801F0AEFB4FF4007000906946E5
:10039000024801F0A7FB1CBD001C024000200240E7
:1003A00008B514208DF8000000208DF801008DF8AC
:1003B000020001208DF80300684601F003FC08BD2F
:1003C000B1F5007F3AD00FDC202928D006DC0129C6
:1003D0001CD004291DD0082940D11DE0402921D07E
:1003E000B1F5807F3AD126E0B1F5004F31D006DC7F
:1003F000B1F5806F25D0B1F5006F2FD124E0B1F5B4
:10040000803F12D0B1F5003F28D111E0154A82603B
:1004100025E00822C26022E01022C2601FE008220C
:1004200002611CE01022026119E00822426016E01D
:100430001022426013E00422426010E00422426075
:100440000DE0042242600AE0002282610422426040
:1004500005E0002282610422426000E000BF00BF8C
:1004600070470000010101007FB505460C46264695
:100470008DF80A5000208DF80B0001208DF80C003B
:10048000C6F34F30ADF800004FF6FF7000EAC6002B
:10049000001DADF802004FF6FF70ADF804007C209F
:1004A000ADF806000020ADF8080001208DF80D0021
:1004B000684600F01DF87FBD10B504460B48844225
:1004C00009D10121480601F0E5FB00214FF0007041
:1004D00001F0E0FB08E00121880601F0DBFB0021D0
:1004E0004FF0806001F0D6FB10BD000000640040BA
:1004F00010B50021837A012202FA03F13D4A126805
:1005000042F001023B4B1A603A4A1C3212688A439D
:10051000384B1C331A60027BCAB9364A0C32126857
:100520008A43344B0C331A604288C38842EA03433F
:10053000304A4032847A42F834300288838842EA72
:1005400003432C4A4032847A02EBC4025360027B9C
:10055000012A19D1274A0C3212680A43254B0C3361
:100560001A604288038842EA0343224A4032847A6E
:1005700042F83430C288838842EA03431D4A40323D
:10058000847A02EBC4025360C27A3AB9194A121D46
:1005900012688A43174B1B1D1A6006E0154A121D8C
:1005A00012680A43134B1B1D1A60028932B9114AA3
:1005B000143212688A430F4B14331A600289012ADD
:1005C00006D10C4A143212680A430A4B14331A60DB
:1005D000427B012A06D1074A1C3212680A43054BA6
:1005E0001C331A60034A126822F00102014B1A60A0
:1005F00010BD00000066004070B504460D460026A0
:1006000060692840002871D0B5F5807F5CD010DC8F
:10061000082D35D006DC012D20D0022D24D0042D4C
:1006200072D127E0102D31D0202D35D0402D6BD147
:1006300038E0B5F5004F60D009DCB5F5007F49D052
:10064000B5F5806F4CD0B5F5006F5DD14FE0B5F5D5
:10065000803F2DD0B5F5003F56D12FE0A0682D4941
:1006600000F0D3FE064651E0E068032100F0CDFE25
:1006700006464BE0E068082100F0C7FE064645E06C
:10068000E068102100F0C1FE06463FE0206903212A
:1006900000F0BBFE064639E02069082100F0B5FEF7
:1006A000064633E02069102100F0AFFE06462DE03B
:1006B0006068082100F0A9FE064627E06068102166
:1006C00000F0A3FE064621E0A069012100F09DFE96
:1006D00006461BE0A069022100F097FE064615E0E1
:1006E000A069042100F091FE06460FE00FE0A0692A
:1006F000702100F08AFE064608E06068042100F0E0
:1007000084FE064602E0FFE7002600BF00E0002668
:10071000304670BD010101002DE9F04385B0074668
:1007200000244FF0FF090020F6494880042008719A
:100730000846008867F30F1008806FF06040019052
:10074000002600BF04E000210DF10B000155641CE0
:10075000082CF8DB0020EB494871EB48C178E948E8
:10076000008861F30300E7490880084640798DF866
:100770000A00084600798DF80800019809680840C9
:100780000190684600F008FE19E0701C86B2C8208F
:1007900096FBF0F100FB116010B9684600F0FCFD1B
:1007A0004CF2503096FBF0F100FB116018B90120BB
:1007B00005B0BDE8F0834FF4487002F075FED348F1
:1007C00000780128E1D100260020D0490870CD48EA
:1007D00000684FF6F0710840CB4989790843CC494D
:1007E0004968884201D00220E2E7C948C07BAA28B4
:1007F00011D104240CE0C6480B30005DAA2802D1B8
:100800004FF0AA3803E04FF00008FA20D0E7641C4C
:10081000082CF0DB17E0BE48C07B552811D104241A
:100820000CE0BB480B30005D552802D14FF0553825
:1008300003E04FF00008FB20BAE7641C082CF0DB53
:1008400001E0FC20B4E7B8F1AA3F70D10420AD4923
:100850004871AD484179AB48008861F30300A9496C
:100860000880084640798DF80A00084600798DF81E
:100870000800084600680190002404E055210DF1AD
:100880000B000155641C9DF80A00A042F6DC684686
:1008900000F082FD4FF4FA7002F006FE0020994944
:1008A00048719948C1789748008861F303009549D9
:1008B0000880084640798DF80A00084600798DF8CE
:1008C0000800084600680190684600F065FD18E0E1
:1008D000701C86B2C82096FBF0F100FB116010B9C5
:1008E000684600F059FD4CF2503096FBF0F100FBE9
:1008F000116010B9002615205AE74FF4487002F035
:10090000D3FD824800780128E2D18148C07B552878
:1009100012D104240DE07E480B30005D552802D131
:100920004FF0553804E04FF00008FE2040E717E094
:10093000641C082CEFDB01E0FD2039E700260020D5
:10094000724908706F4800684FF6F07108406E49B0
:10095000897908436E494968884201D0032027E716
:10096000B8F1553F44D10020664948716648417846
:100970006448008861F303006249088008464079B2
:100980008DF80A00084600798DF8080000200190D3
:100990000F2141EA0711019808430190684600F0D1
:1009A000FBFC0FE0701C86B242F2107096FBF0F177
:1009B00000FB116010B900260420F9E64FF44870DE
:1009C00002F072FD514800780128EBD1002600208A
:1009D0004E4908704B4800684FF6F07108404A498C
:1009E000897908434A494968884201D00520DFE6F1
:1009F000012248A1484803F04FF905460DB10620F1
:100A0000D6E6012245A1524803F074F905460DB11E
:100A10000720CDE600214E4802F0E6FF05460DB165
:100A20000820C5E666E14B4B09224B49484803F0D4
:100A30005AFA05460DB10920BAE6474800783A2827
:100A40005FD1082245494448401C03F0C9FE434891
:100A5000C0794249897940EA011041498873414887
:100A6000807868B901203F4988700020C870022052
:100A700008700020487081F84C0081F84D0079E042
:100A80003748807B042803D03548807B01281CD15F
:100A90003946344800F07CFA8146B9F1AF0F01D0F5
:100AA000484685E64FF0FF0900202E4981F84D00A9
:100AB00081F84C0048604870002403E00020294978
:100AC0000872641C442CF9DB54E026484078254920
:100AD000097888424ED13946224800F059FA8146B9
:100AE000B9F1AF0F01D0484662E64FF0FF09002090
:100AF0001C4981F84D0081F84C0048604870002482
:100B000036E0EDE0A80000206D0000206C00002021
:100B1000DC080020303A0000E4020020303A2F6266
:100B20006F6F746C6F616465725F66696C652F547A
:100B30004D533332304632383333352F6865782F92
:100B400032383333355F5F4150502E68657800008E
:100B50001C050020600000209807002018080020D5
:100B6000480700201000002000207A490872641C09
:100B7000442CF9DB784840787749097840EA01103D
:100B8000764908700846807B80B9734880780003F6
:100B90007149C97840EA01206F49097940EA01109A
:100BA0006D49497908436D49888102E000206B490D
:100BB000888180216A4800F0C1FE684800780321DE
:100BC00001EB4002674B6649674803F08CF9054624
:100BD0000DB10A20ECE5614800784006020E5E493E
:100BE0005F4803F0FDFD5D48807B042814D15A481E
:100BF000007800035849497840EA0120564989782D
:100C000040EA01105449C9780843544988600846AD
:100C10000089000488601CE05048807BC8B94F48B8
:100C200080684E49898908444C49486000240CE09A
:100C30006000401C4849085C11F8141040EA01109B
:100C4000C1B246480F300155641C44480078A042A8
:100C5000EEDC4248807B60BB3E48407818B93F4894
:100C600040683C49486000240DE03A4981F84C4016
:100C70003A480F30015D374890F84D000219354869
:100C800008308154641C35480078A042EDDC3348BC
:100C90000078304981F84C00084690F84D0091F8F2
:100CA0004C1008442B4981F84D0008464078401C00
:100CB000487080212A4800F041FE8021264800F03B
:100CC0003DFE402125480F3000F038FE264840699F
:100CD000411C254802F088FE05460DB10B2067E552
:100CE0001E4800780C2101EB4000204909680844A7
:100CF0001E4908601C48C0681C49096888423FF6C4
:100D000092AE194802F05FFE042019494871194853
:100D100041791748008861F30300154908800846A7
:100D200040798DF80A00084600798DF808000846D9
:100D300000680190AA208DF80B00AA218DF80C10F4
:100D40008DF80D108DF80E10684600F025FBFF2081
:100D50002EE50000100000201808002048070020A1
:100D600098070020600000201C05002008000020DB
:100D7000A80000206D0000201AB143690B434361B5
:100D800002E043698B434361704730B5024600205F
:100D90000023146824F002041460146844F0010471
:100DA000146000E05B1C546804F001041CB94FF6A9
:100DB000FF74A342F6D1546804F001040CB900207A
:100DC0006CE08C79012C04D1146844F08004146028
:100DD00003E0146824F080041460CC79012C04D161
:100DE000146844F04004146003E0146824F04004E4
:100DF00014600C7A012C04D1146844F020041460AF
:100E000003E0146824F0200414604C7A012C04D10F
:100E1000146844F01004146003E0146824F0100413
:100E200014608C7A012C04D1146844F00804146016
:100E300003E0146824F008041460CC7A012C04D177
:100E4000146844F00404146003E0146824F00404FB
:100E500014608C78A407CD7844EA05640D7944EADF
:100E600005444D7944EA05540D886D1E2C43D46128
:100E7000146824F001041460002300E05B1C546833
:100E800004F001041CB14FF6FF74A342F6D154687C
:100E900004F001040CB1002000E0012030BD10B5C9
:100EA00000F5D87303EB01131B6803F004031372FE
:100EB000137A53B900F5D87303EB01131B6840F2A2
:100EC000FF7404EA5353136009E000F5D87303EB91
:100ED00001131B686FF0604404EAD303536000F50C
:100EE000D87303EB01131B6803F00203537200F580
:100EF000D87303EB01135B6803F00F03937200F5E3
:100F0000D87303EB01135B681B0AD37400F5D87325
:100F100003EB01139B68D37200F5D87303EB011345
:100F20009B681C0A147300F5D87303EB01139B68CC
:100F30001C0C547300F5D87303EB01139B681B0E54
:100F4000937300F5D87303EB0113DB68D37300F5DB
:100F5000D87303EB0113DB681C0A147400F5D87313
:100F600003EB0113DB681C0C547400F5D87303EB1E
:100F70000113DB681B0E937421B9C36843F020038F
:100F8000C36003E0036943F02003036110BD000068
:100F90002DE9F04389B004460F460026B046BDF85F
:100FA000140067F30F10ADF814000020ADF8160020
:100FB00004208DF8180094F84D1004F1080000F09A
:100FC00007FA804694F84D2004F1080000F80280EA
:100FD0004FEA182294F84D00401C04F108010A540D
:100FE00008208DF819006E484178BDF8140061F3AF
:100FF0000300ADF814006068000E6A4988716068EB
:10100000010C8DF81B10A088010A8DF81C102179A5
:101010008DF81D1000218DF81E108DF81F1094F80A
:101020004D00801C010A05A8017394F84D00801C36
:10103000C1B205A841739DF819008DF80A009DF80A
:1010400018008DF8080005980190002506E00DF1C4
:101050001A00415D0F384155681CC5B29DF8190052
:10106000A842F4DC684600F097F900BF4E480078CB
:101070000128FBD100204C4908704FF6F07105980B
:10108000084047498979084348494968884203D05C
:10109000A02009B0BDE8F08357E094F84D00801C13
:1010A000A0EB0609B9F1080F25DB08208DF819001F
:1010B0003B488178BDF8140061F30300ADF81400DB
:1010C0009DF819008DF80A009DF818008DF80800A9
:1010D00005980190002509E004F10800815D0DF1FB
:1010E0000B004155701CC6B2681CC5B29DF81900B2
:1010F000A842F1DC25E009F0FF008DF8190028482E
:101100008178BDF8140061F30300ADF814009DF878
:1011100019008DF80A009DF818008DF80800059850
:101120000190002509E004F10800815D0DF10B003C
:101130004155701CC6B2681CC5B29DF81900A84282
:10114000F1DC684600F028F900BF94F84D00801CDF
:10115000B042A2DC00BF144800780128FBD1002077
:1011600011490870002505E0002104F108008155AF
:10117000681CC5B294F84D00801CA842F4DC4FF600
:10118000F07105980840064989790843074949687C
:10119000884201D0A1207CE70026AF2079E700003B
:1011A0006D000020A80000206C000020DC0800205A
:1011B00000218171C171017241728172C1728170AD
:1011C000C170032101710221417101210180704729
:1011D00010B502460020936803F08063B3F1806F7E
:1011E00000D110E0936803F00063B3F1006F01D108
:1011F000012008E0936803F08053B3F1805F01D1D0
:10120000022000E00420042874D002F5C07303EB30
:1012100000131B6803F0010402F5C07303EB001315
:101220001C600B7A7BB94B7A0C8843EA445302F575
:10123000C07404EB00142468234302F5C07404EB6B
:101240000014236010E00B7A4C6843EAC4034C7A24
:10125000234302F5C07404EB00142468234302F511
:10126000C07404EB001423608B7A03F00F038B72BD
:1012700002F5C07303EB00135B6823F00F0402F563
:10128000C07303EB00135C6002F5C07303EB001343
:101290005B688C7A234302F5C07404EB001463602E
:1012A0008B7B1C064B7B44EA03440B7B44EA032301
:1012B000CC7A234302F5C07404EB0014A3608B7C4A
:1012C0001C064B7C44EA03440B7C44EA0323CC7B9E
:1012D000234302F5C07404EB0014E36002F5C0730D
:1012E00003EB00131B6843F0010402F5C07303EB2A
:1012F00000131C6010BD000010B50246002321B190
:10130000012907D002290FD109E090681D4C00EA9D
:1013100004030BE090681C4C00EA040306E09068AC
:101320001A4C00EA040301E0002300BF00BF184C80
:10133000181BA34216D007DC83B16FF080601844FD
:1013400070B1022818D111E0B0F5007F10D0114C17
:10135000204448B1B0F5003F0ED10BE002230DE070
:1013600000230BE0002309E0002307E0012305E050
:10137000012303E0012301E0002300BF00BFD8B236
:1013800010BD00000300000400030008000003106B
:10139000000100080001FFF770B504460025214652
:1013A0000948FFF715FF064605E06D1C0748854212
:1013B00001D9012070BD31460348FFF79DFF012888
:1013C000F3D10020F6E7000000640040809698000A
:1013D00030B502460B464FF6FF7010E012F8014B95
:1013E0006040002109E000F0010424B14AF2010448
:1013F00084EA600000E04010491C0829F3DB1C1E51
:10140000A3F10105ABB2E9D130BD0246002002EAEA
:1014100001030BB1012000E00020704770B50025EA
:101420004FF4803400E0641E24B1802000F034FDCD
:101430000028F8D014B90325284670BD40F2FF50AB
:1014400000F0E6FC2846F8E72DE9F04106460027C3
:101450004848056801E04748056805F04500002850
:10146000F9D005F0040030B10327042000F0D0FCCF
:101470003846BDE8F08105F0010028B101270120C0
:1014800000F0C6FC3846F4E700F000FDB04202D0A0
:1014900010273846EDE740F2FF5000F0B9FC00207D
:1014A00000F01AFD04463448204008B93846E0E709
:1014B00004F0004008B11C20DBE704F0804008B1D4
:1014C0000920D6E704F0005008B10A20D1E704F063
:1014D000805008B10B20CCE704F0006008B10C206C
:1014E000C7E704F0806008B10D20C2E704F0807007
:1014F00008B10E20BDE704F4000008B10F20B8E7E2
:1015000004F4800008B11020B3E704F4001008B11F
:101510001120AEE704F4801008B11220A9E704F40A
:10152000002008B11320A4E704F4802008B114209F
:101530009FE704F4003008B115209AE704F48030E6
:1015400008B1162095E704F4004008B1172090E791
:1015500004F4804008B118208BE704F4005008B16F
:10156000192086E704F0080008B11A2081E7384600
:101570007FE70000342C014008E0FFFD70B5002536
:101580001048046801E00F48046804F04500002892
:10159000F9D004F0040028B10325042000F038FC41
:1015A000284670BD04F0010028B10125012000F09B
:1015B0002FFC2846F5E740F2FF5000F029FC2846B2
:1015C000EFE70000342C014070B500250B4804689B
:1015D00001E00A48046804F045000028F9D004F04E
:1015E000040028B10325042000F012FC284670BD39
:1015F00040F2FF5000F00CFC2846F8E7342C014084
:101600002DE9F04106460F464FF0000822480568D4
:1016100001E02148056805F045000028F9D005F0F3
:10162000040038B14FF00308042000F0F1FB4046FD
:10163000BDE8F08105F0010030B14FF00108012054
:1016400000F0E6FB4046F3E700F020FCB04203D098
:101650004FF010084046EBE740F2FF5000F0D8FB97
:10166000002000F039FC044604F4604018B9200C56
:1016700038804046DCE704F4005008B11320D7E777
:1016800004F4804008B11020D2E704F4004008B10F
:101690000F20CDE74046CBE7342C014070B5002643
:1016A0004FF480350F48046802E06D1E0D48046851
:1016B00004F0450008B9002DF7D115B104F004007D
:1016C00028B10326042000F0A3FB304670BD04F0CF
:1016D000400028B10026402000F09AFB3046F5E794
:1016E0003046F3E7342C014010B501F0FBF810BD93
:1016F0000246094B9A4201D2084801E006481038D8
:1017000001F000531BB1064B0B40C36002E0044BD9
:101710000B4083607047000010640240006002408C
:101720007D0F7D0F21B1026842F00102026003E0EB
:10173000026822F00102026070470000016821F097
:10174000010101600021016041608160C1600161AF
:10175000212141614A49884204D13D21484A103A39
:1017600091608CE046491831884205D14FF474618C
:10177000434A103A916082E041493031884205D1B4
:101780004FF474113E4A103A916078E03C49483178
:10179000884205D14FF07461394A103A91606EE089
:1017A00037496031884204D13649354A103AD16010
:1017B00065E033497831884204D13349304A103AE0
:1017C000D1605CE02E499031884204D12F492C4AE7
:1017D000103AD16053E02A49A831884205D14FF030
:1017E0003D51274A103AD16049E02949884204D145
:1017F0003D21274A083A116041E0254918318842C5
:1018000005D14FF47461224A083A116037E020494B
:101810003031884205D14FF474111D4A083A1160E5
:101820002DE01B494831884205D14FF07461184AB8
:10183000083A116023E016496031884204D1114909
:10184000134A121F11601AE011497831884204D1FD
:101850000D490F4A121F116011E00D499031884265
:1018600004D10A490A4A121F116008E00849A83148
:10187000884204D14FF03D51054A121F1160704754
:10188000106002403D000020400F002000003D207D
:101890001064024021B1026842F02002026003E0BD
:1018A000026822F020020260704710B501F0800348
:1018B0004BB122B1436943F08003436103E04369C4
:1018C00023F08003436180290BD02AB1036801F023
:1018D0001E042343036004E0036801F01E04A343D5
:1018E000036010BD10B500220268134B1A40CC688B
:1018F0000B6823434C6923438C692343CC692343FE
:101900000C6A23434C6A23438C6A23434C6B234366
:101910008C6B23431A430260426922F00702D1E92B
:101920000B3423431A4342610B6943604B68836065
:101930008B68C36010BD00003F801CF0002203E0F4
:1019400000230370401C521C8A42F9D37047704731
:101950002DE9FC4107460D4600260024002000909A
:10196000019008205B490860102048604020886092
:101970000020C8604FF480600861084600F0EAFA71
:101980001020FFF761FD044614B12046BDE8FC813C
:101990005148008800044F490860372048604020C3
:1019A00088600020C8604FF480600861084600F03D
:1019B000D1FA3720FFF748FD04460CB12046E5E791
:1019C0004FF0FF30454908600820486030208860AB
:1019D0000220C8600020086101204861084600F02C
:1019E0002FFA00203B49086033204860402088607F
:1019F0000020C8604FF480600861084600F0AAFA31
:101A00003320FFF721FD04460CB12046BEE709E074
:101A10004FF4001000F040FA20B100F095FA4DF8B4
:101A20002600761C2E48006840F22A6108400028F3
:101A3000EED0082000F030FA28B1082000F0E8F9D4
:101A400004242046A2E7022000F026FA28B1022052
:101A500000F0DEF90224204698E7202000F01CFA6E
:101A600028B1202000F0D4F9062420468EE74FF458
:101A7000007000F011FA30B14FF4007000F0C8F9B6
:101A80000724204682E740F2FF5000F0C1F9009899
:101A90000006009901F47F4140EA0120009901F419
:101AA0007F0140EA1120009940EA116068600198C6
:101AB0000006019901F47F4140EA0120019901F4F7
:101AC0007F0140EA1120019940EA11602860204618
:101AD0005CE70000A00B002080000020B40B002079
:101AE000342C0140F0B50A4600210023002400BF39
:101AF0003DE0012505FA01F3156805EA03049C425F
:101B000034D105684F000326BE40B5430560157902
:101B10004E00B5400668354305601579012D02D0A9
:101B20001579022D16D185684F000326BE40B543B6
:101B3000856055794E00B5408668354385604568B7
:101B400001268E40B5434560456896798E40B6B211
:101B500035434560C5684F000326BE40B543C560A8
:101B6000D5794E00B540C6683543C560491C10297B
:101B7000BFD3F0BDF0B5002300244D07ED0E02FAEF
:101B800005F3CE1000F1200555F826504E07F70E4C
:101B90000F26BE40B543CF1000F1200646F827506F
:101BA000CE1000F1200555F8265045EA0304CE106A
:101BB00000F1200545F82640F0BD00BFFEE700BF5C
:101BC000FEE7704770B5002100230F22C4781CB3D4
:101BD000174C246804F4E064C4F5E064C4F30721FE
:101BE000C1F10404E3B20A4144789C40E1B2847834
:101BF000144021430C07210E0E4C057861550478E2
:101C000004F01F050124AC4005786D11AD0005F10D
:101C1000E025C5F8004109E0047804F01F0501241F
:101C2000AC40054D0678761145F8264070BD0000A1
:101C30000CED00E000E400E080E100E00249014337
:101C4000024A1160704700000000FA050CED00E048
:101C50007047000029B1064A12680243044B1A601B
:101C600004E0034A12688243014B1A607047000087
:101C70003038024029B1064A12680243044B1A6008
:101C800004E0034A12688243014B1A607047000067
:101C90004038024029B1064A12680243044B1A60D8
:101CA00004E0034A12688243014B1A607047000047
:101CB0002038024029B1064A12680243044B1A60D8
:101CC00004E0034A12688243014B1A607047000027
:101CD0004438024029B1064A12680243044B1A6094
:101CE00004E0034A12688243014B1A607047000007
:101CF000243802407CB50546002400200090019065
:101D000000F0EAF800F0007010B10E2420467CBD0F
:101D10003D49098888B26946FFF71AFE04460CB1AE
:101D20002046F4E7012D36D1019800F480200028E8
:101D30002ED03548008800043449086037204860B8
:101D4000402088600020C860A8020861084600F0B2
:101D500001F93720FFF778FB04460CB12046D6E79F
:101D600002202A4908600620486040208860002040
:101D7000C8604FF480600861084600F0EBF8062068
:101D8000FFF762FB04460CB12046C0E72046BEE7E1
:101D900025242046BBE7019800F4803078B31A4828
:101DA0000088000419490860372048604020886096
:101DB0000020C8604FF480600861084600F0CAF84F
:101DC0003720FFF741FB04460CB120469FE7002077
:101DD0000E49086006204860402088600020C860E6
:101DE0004FF480600861084600F0B4F80620FFF761
:101DF0002BFB04460CB1204689E7204687E7FFE726
:101E00002524204683E7000080000020A00B00204E
:101E10000149086070470000382C01400149086002
:101E200070470000382C01400149086070470000ED
:101E3000A080254201490860704700008C8525423A
:101E400000210B4B02681A601B1D42681A601A1DA4
:101E5000116821F0F701D0E902231A4303691A43FC
:101E600043691A431143024A083211607047000067
:101E7000242C014010B50121C802FFF72BFF0021DF
:101E80004FF40060FFF726FF10BD00000148006816
:101E9000C0B27047102C014001460020034A12686E
:101EA0000A400AB1012000E000207047342C0140B4
:101EB00001460020034A12680A400AB1012000E0EE
:101EC00000207047342C01400248006800F00300F5
:101ED00070470000002C014008B50146002000902A
:101EE0000248084400900098006808BD142C014086
:101EF00010B500F00BFD10BD29B1064A126802436F
:101F0000044B1A6004E0034A12688243014B1A60D2
:101F1000704700003C2C014000210A4A116847F636
:101F2000FF629143027D83681A4343681A43C36882
:101F30001A4303681A4303691A431143014A1160A3
:101F400070470000042C0140014800687047000001
:101F5000802C01400021094B02681A601A1D11688B
:101F60006FF30A01D0E901231A43C3681A430369D6
:101F70001A431143014A121D11607047082C014099
:101F80000149086070470000002C014008B501209D
:101F900000909DF8000008BD70B50446002520485B
:101FA0000068032802D12725284670BD1C48006818
:101FB00038B11B480068012803D01948006802287E
:101FC0002CD1B4F5805F02D127252846EDE7B4F582
:101FD000006F13D10120FFF78DFE0546F5B90020F3
:101FE000104908750860486088604FF40060C86058
:101FF000002008610846FFF78FFF0FE00020FFF781
:1020000079FE054655B90020064908750860486004
:102010008860C86008610846FFF77EFF2846C4E76D
:102020007C000020880B0020F0B501460020002233
:10203000C04B1B7881F85630BF4B1B88A1F8543039
:10204000BE4B1B681A0E93090B70C2F383034B70CF
:1020500002F003038B70B94B1B68C3F30742CA70CD
:10206000B64B1B88C3F307220A71B44B1A784A7126
:102070005B681A0E1301CB80B04B5B68C3F3074259
:10208000CB8843EA1213CB8002F00F030B72AB4BE9
:102090009B88C3F30722D3094B72C2F380138B7260
:1020A000C2F34013CB72C2F300130B7300234B73C4
:1020B000A04B1B681BB19F4B1B68012B4FD1930793
:1020C0001B0D0B619D4B1A790B6943EA82030B616F
:1020D0009A4B9B681A0E0B6943EA92130B61C2F389
:1020E000C2030B7502F007034B75944B9B68C3F357
:1020F000074253098B75C2F38203CB7593075B0FBD
:102100000B768E4B1B89C3F307220B7E43EAD21357
:102110000B760B695B1C0024C1E912340B7ED1E9FC
:1021200012469B1C012505FA03F3DF17A4FB035C91
:1021300006FB03C304FB0733C1E912530C7A0123E6
:10214000A3400B650027D1E912560B6DA5FB034C8C
:1021500006FB03C305FB0733C1E9124336E0754BA9
:102160001B68022B32D1754B1A7993069B0A0B61BF
:10217000724B9B681A0E0B6943EA02230B616F4B8B
:102180009B68C3F307420B6913430B616B4B1B89BD
:10219000C3F307220B6900245B1C44EB04074FF4D4
:1021A00000760025A3FB064C07FB06C603FB05666D
:1021B0004FF480650027A4FB053C06FB05C504FB26
:1021C0000754C1E912344FF400730B65C2F3801356
:1021D00001F8193F93065B0E4B70584B1A7A4B78F7
:1021E00043EAD2134B7002F07F038B70534BDB68D2
:1021F0001A0ED309CB70C2F341130B71C2F38203E1
:102200004B7193071B0F8B714C4BDB68C3F3074279
:102210008B7943EA92138B71C2F34013CB71002385
:102220000B7202F001034B72444B9B89C3F30722EC
:10223000D3098B72C2F38013CB72C2F340130B73BA
:10224000C2F300134B73C2F381038B7302F00303D9
:10225000CB733A4B1A7B53080B7401234B74384BE6
:102260001B681A0ECA741939354B1B68C3F3074231
:102270001402CC85324B1B88C3F30722CB8D13434A
:10228000CB852F4B1A7814060C635B681A0E0B6B08
:1022900043EA02440C632A4B5B68C3F307420B6BAF
:1022A00043EA02240C63264B9B88C3F307220B6B83
:1022B00013430B63224B1A7934235A54204B9B68E7
:1022C0001A0E35235A541E4B9B68C3F3074214065B
:1022D0008C631B4B1B89C3F307228B6B43EA0244BD
:1022E0008C63174B1A7A8B6B43EA02248C63144B72
:1022F000DB681A0E8B6B13438B63114BDB68C3F3E4
:1023000007423C235B5C43EA12143C235C541307F2
:102310001C0DCC870A4B9B89C3F30722CB8F134339
:10232000CB87074B1A7B540840235C54012441237C
:102330005C54F0BD7C00002080000020000B0020D9
:10234000100B002008B500200090FFF71FFE0128A9
:1023500009D1684600F0C8FB08B1FF2008BD00980D
:10236000C0F34320FAE7FF20F8E710B50424FFF795
:10237000E9FF0446042C01D1002010BDFF2C01D13F
:102380000220FAE70120F8E708B50020009000F0ED
:102390006BF9FFF76FFD00F0D5F900909DF8000094
:1023A00010B19DF8000008BD00F032F800909DF8D3
:1023B000000010B19DF80000F5E7002012490875F3
:1023C000086048608860C86008610846FFF7A4FD9F
:1023D0000E48FFF729FE00909DF8000040B90B4819
:1023E000B0F8540002041046002100F061FB009098
:1023F0009DF8000020B94FF40060FFF7CDFD00907C
:102400009DF80000CFE70000880B0020300B002073
:1024100038B5002401200090FFF756FD10B925249F
:10242000204638BD44480068042828D0002043498D
:10243000086002204860C02088600020C8604FF417
:10244000806008610846FFF785FDFFF797F80446AE
:102450000CB12046E5E70020FFF73EFD3849086053
:102460000420FFF739FD364948600820FFF734FDA6
:10247000334988600C20FFF72FFD3149C8602E4892
:10248000006858B12C480068012807D02A48006825
:10249000062803D028480068022816D100202749C2
:1024A000086003204860402088600020C8604FF426
:1024B000806008610846FFF74DFD69460320FFF77D
:1024C0009FF804460CB12046ABE71B48006804287F
:1024D0002ED0BDF800001B490860BDF800000004C4
:1024E0001649086009204860C02088600020C86044
:1024F0004FF4806008610846FFF72CFDFFF73EF8B7
:1025000004460CB120468CE70020FFF7E5FC0E499D
:1025100008600420FFF7E0FC0B4948600820FFF743
:10252000DBFC094988600C20FFF7D6FC0649C8602F
:102530000024204675E700007C000020A00B00204E
:10254000100B002080000020000B002030B58FB061
:1025500005460C464FF0FA511D48FFF7C9F8002117
:102560001B48FFF7DFF81A48FFF7E8F84FF0006064
:102570000090184801900295002003900494059063
:102580004FF4806006908000079080000890002043
:1025900009904FF440300A9004200B9003200C90D7
:1025A0004FF400000D9080100E9069460848FFF728
:1025B00099F9012210210648FFF777F920210448F4
:1025C000FFF768F901210248FFF7ACF80FB030BD02
:1025D00058640240802C014030B58FB005460C464F
:1025E0004FF0FA511E48FFF783F800211C48FFF70F
:1025F00099F81B48FFF7A2F84FF0006000901948C7
:1026000001900295402003900494002005904FF41F
:10261000806006908000079080000890002009905C
:102620004FF440300A9004200B9003200C904FF49C
:1026300000000D9080100E9069460948FFF752F98E
:10264000012210210648FFF730F920210448FFF746
:1026500021F901210248FFF765F80FB030BD0000F5
:1026600058640240802C01400EB501218C20FFF7F8
:10267000F1FA0C2208213148FFF77CFA0C220921DB
:102680002E48FFF777FA0C220A212C48FFF772FA3E
:102690000C220B212948FFF76DFA0C22114627481E
:1026A000FFF768FA0C2202212548FFF763FA4FF47E
:1026B0007060019002208DF809008DF8080000205C
:1026C0008DF80A0001208DF80B0001A91B48FFF7C7
:1026D00009FA0420019001A91948FFF703FA4FF401
:1026E0008050019000208DF80B0001A91348FFF7DE
:1026F000F9F90121C802FFF7DDFA01218805FFF78A
:10270000A9FA01208DF803000F208DF801000020A8
:102710008DF8020031208DF800006846FFF752FA6C
:102720000E208DF8010000208DF802003B208DF86E
:1027300000006846FFF746FA0EBD000000080240A0
:10274000000C0240F8B5002000900025002400266F
:10275000002776205F49087500200860486088607F
:10276000C86008610846FFF7D7FB0320FFF708FCA5
:102770000120FFF759FB0020574908604860886036
:10278000C8604FF4806008610846FFF7E3FBFEF77E
:1027900045FE00909DF8000010B19DF80000F8BDC6
:1027A0004FF4D5704C49086008204860402088608C
:1027B0000020C8604FF4806008610846FFF7CAFB3C
:1027C000FEF76CFF00909DF8000020B901204349FE
:1027D0000860870712E000203F4908603720486002
:1027E000402088600020C8604FF48060086108467F
:1027F000FFF7B0FB3720FEF727FE00900020364998
:10280000086037204860402088600020C8604FF48E
:10281000806008610846FFF79DFB3720FEF714FE35
:1028200000909DF80000002851D13BE000202A498B
:10283000086037204860402088600020C8604FF45E
:10284000806008610846FFF785FB3720FEF7FCFD36
:1028500000909DF8000010B19DF800009FE720480F
:1028600038431D49086029204860402088600020C6
:10287000C8604FF4806008610846FFF76BFBFEF705
:10288000A3FE00909DF8000010B19DF8000086E7BF
:102890000020FFF721FB0546012080EAD57080F07B
:1028A0000106641C1EB94FF6FF708442BED34FF67A
:1028B000FF70844204D31B2000909DF800006EE757
:1028C00005F08040051E02D00220044908609DF8F2
:1028D000000064E7880B0020A00B00207C00002093
:1028E0000000108010B50748006800F0C05040B1EB
:1028F0000120054908604FF0C25102485830FEF7E8
:10290000F7FE10BD006402409000002010B54FF4A7
:102910008070FFF7CDFA50B10020254908704FF4C0
:102920008070FFF77BFA01202249086037E002201F
:10293000FFF7BEFA30B10220FFF770FA02201C49FF
:1029400008702CE00820FFF7B3FA30B10820FFF739
:1029500065FA04201649087021E02020FFF7A8FA44
:1029600030B12020FFF75AFA06201149087016E00E
:102970001020FFF79DFA30B11020FFF74FFA052025
:102980000B4908700BE04FF40070FFF791FA30B17B
:102990004FF40070FFF742FA072005490870002144
:1029A0004CF23A30FFF7A8FA0148007810BD000059
:1029B000880000208C0000202DE9F0478146144655
:1029C0001D46DDE9086800270020324908703249B9
:1029D0000860012031490860002031490860012168
:1029E00040F22A30FFF788FA08FB06F14846FFF765
:1029F000ADFD0120FFF71EFA2A480068022808D121
:102A000006020202002320462946FDF7D9FB0446B0
:102A10000D46254806601020234948604020886004
:102A20000020C8604FF4806008610846FFF792FA02
:102A30001020FEF709FD074617B13846BDE8F087BC
:102A40004FF0FF301949086008FB06F048609020FD
:102A500088600220C86000200861012048610846A3
:102A6000FFF7EEF91048046012200F49486040203B
:102A700088600020C8604FF4806008610846FFF756
:102A800069FA1220FEF7E0FC07460FB13846D5E799
:102A90003846D3E7880000208C0000208400002006
:102AA0002C2C01407C000020A00B0020B40B002047
:102AB00070B504460D4600260A48046007200949FF
:102AC0004860402088600020C8604FF48060086142
:102AD0000846FFF73FFA0720FEF7B6FC06463046E9
:102AE00070BD0000A00B002070B50446002514B98D
:102AF0002625284670BD0F48008800040E4908604E
:102B00000D204860402088600020C8604FF480603D
:102B100008610846FFF71EFA0D20FEF795FC0546F2
:102B20000DB12846E6E70020FFF7D6F920602846D9
:102B3000E0E7000080000020A00B002010B500247A
:102B400000200A4908600C2048604020886000206E
:102B5000C8604FF4806008610846FFF7FBF90C205D
:102B6000FEF772FC0446204610BD0000A00B0020BA
:102B700070B500256C1E00E0641E1848006838B966
:102B80001748006820B91748007808B9002CF3D11D
:102B9000002012490860441E00E0641E12480068CC
:102BA00000F4005008B1002CF7D11048006801284B
:102BB00005D1FFF7C3FF054600200C4908600CB99A
:102BC00005B9042540F2FF50FFF722F905480078C7
:102BD00010B10448007870BD2846FCE79000002042
:102BE0008C00002088000020342C0140840000204C
:102BF00070B500256C1E00E0641E1848006838B9E6
:102C00001748006820B91748007808B9002CF3D19C
:102C1000002012490860441E00E0641E124800684B
:102C200000F4805008B1002CF7D11048006801284A
:102C300005D1FFF783FF054600200C4908600CB959
:102C400005B9042540F2FF50FFF7E2F80548007887
:102C500010B10448007870BD2846FCE790000020C1
:102C60008C00002088000020342C014084000020CB
:102C70002DE9F047814615461E46DDE90878002417
:102C80000020494908704949086001204849086006
:102C9000002048490860012140F22A30FFF72CF952
:102CA00008FB07F14846FFF797FC0120FFF7C2F841
:102CB00041480068022808D1070202020023284682
:102CC0003146FDF77DFA05460E463C480760102068
:102CD0003A494860402088600020C8604FF4806016
:102CE00008610846FFF736F91020FEF7ADFB0446F1
:102CF00014B12046BDE8F0873148008800042F4910
:102D0000086037204860402088600020C8604FF489
:102D1000806008610846FFF71DF93720FEF794FB35
:102D200004460CB12046E5E72448C0F8008017208F
:102D300022494860402088600020C8604FF48060CD
:102D400008610846FFF706F91720FEF77DFB0446E9
:102D50000CB12046CEE71948056019201749486094
:102D6000402088600020C8604FF4806008610846F9
:102D7000FFF7F0F81920FEF767FB04460CB1204678
:102D8000B8E74FF0FF300F49086008FB07F04860D4
:102D9000902088600020C8600861012048610846D2
:102DA000FFF74EF82046A5E7880000208C000020A1
:102DB000840000202C2C01407C000020A00B00206F
:102DC00080000020B40B0020704700000CB50020EC
:102DD000019000903448006840F480303249086027
:102DE00000BF3148006800F4003000900198401C9A
:102DF0000190009818B90198B0F5A04FF1D12A4878
:102E0000006800F4003010B10120009001E00020C3
:102E100000900098012846D123484030006840F0D7
:102E200080502149403108602048006840F440400B
:102E30001E4908601C48083000681B4908310860BA
:102E40000846006840F4004008600846006840F406
:102E5000A05008601648091F0860081F006840F06D
:102E60008070091F086000BF0F48006800F0007004
:102E70000028F9D040F205700E4908600A48083071
:102E8000006820F00300084908310860084600681F
:102E900040F00200086000BF03480830006800F0FE
:102EA0000C000828F8D10CBD00380240007000402A
:102EB00019544007003C02407047000010B5154807
:102EC000006840F47000134908601348006840F03F
:102ED00001001149086000200F49083108600E48C0
:102EE00000680E4908400C4908600D48091D08603B
:102EF000081F006820F48020091F08600020064990
:102F00000C310860FFF762FF4FF000600149803923
:102F1000086010BD88ED00E000380240FFFFF6FEBB
:102F20001030002400BFFEE702E008C8121F08C1ED
:102F3000002AFAD170477047002001E001C1121F3A
:102F4000002AFBD17047000070B504460D460020F2
:102F5000E070401E60632946204601F0FFFC08B186
:102F6000042070BD04F2362001F06CFC4AF65521B5
:102F7000884201D00320F4E794F83800E92807D00C
:102F800094F83800EB2817D13A20005D902813D12F
:102F900004F16E0001F04AFC20F07F4007498842AE
:102FA00001D10020DDE704F18A0001F03FFC044973
:102FB000884201D10020D4E70220D2E746415400E4
:102FC00046415433024600E0521C107810B110788C
:102FD0008842F9D110787047F0B503460D461E6857
:102FE000986A021D680A7789B0FBF7F400BF02CA2D
:102FF00009B90020F0BD8C4200D202E0641A121D13
:10300000F5E700BF10682044F4E70246891ED06946
:10301000801E884201D8002070475389106B01FB45
:103020000300F9E72DE9F04780460C4604F11A0049
:1030300001F008FC10B10020BDE8F087207800F016
:103040003F00401E00EB800101EBC0054FF001097D
:10305000002621E01849895D081901F0F3FB0746B5
:10306000B9F1000F11D0FF2D0BD2384601F088F8CE
:10307000824629466D1C38F8110001F081F882451E
:1030800001D00020D8E7B94605E04FF6FF7087422F
:1030900001D00020D0E7761C0D2EDBD3207800F085
:1030A000400038B1B9F1000F04D038F8150008B16C
:1030B0000020C1E70120BFE7EA4D00080146FF20DC
:1030C0000A78302A06DB0A78392A03DC0A78303A93
:1030D000D0B208E00A78412A05DB0A78462A02DCE9
:1030E0000A78373AD0B270472DE9F04782468946D0
:1030F000DAF80040B9F1000F06D1276917B1E0698D
:10310000B84215D8012713E04946504601F0CEFADF
:103110000646022E02D20120BDE8F087701C08B9D5
:103120003046F9E7E069B04201D93046F4E74F464E
:103130003D4600BF6D1CE069A84204D80225BD428F
:1031400001D90020E8E72946504601F0AFFA0646CB
:1031500006B909E0012E01D0701C08B93046DBE742
:10316000BD42E7D10020D7E700BF00BF4FF0FF32DC
:103170002946204601F00CFC8046B8F1000F08D12A
:10318000B9F1000F05D02A464946204601F000FC5F
:103190008046B8F1000F0DD12561E069801E61699C
:1031A000814202D26069401E6061207940F00100D6
:1031B000207107E0B8F1010F02D14FF0FF3000E0BD
:1031C000012005462846A7E72DE9F34F83B0814645
:1031D000049800680190D9F80000D0F80C80002015
:1031E0000546064600BF3046761C01990C5C202C33
:1031F00000DA2BE02F2C01D05C2C0AD100E0761CE9
:103200000198805D2F28FAD00198805D5C28F6D067
:103210001CE0FF2D03D3062005B0BDE8F08FE4B21B
:103220000121204600F086FF04460CB90620F3E792
:10323000802C06DA214680A0FFF7C4FE08B10620E4
:10324000EAE728466D1C28F81040CCE700BF01983B
:10325000811904980160202C01DA042000E000208C
:103260000746012D04D1681E38F810002E280BD017
:10327000022D24D1681E38F810002E281FD1A81E58
:1032800038F810002E281AD1002028F8150083469F
:103290000AE0AB4501D22E2100E0202109F12000F7
:1032A00000F80B100BF1010BBBF10B0FF1D347F042
:1032B000200109F1200000F80B100020ACE708E025
:1032C000681E38F81040202C02D02E2C00D002E0CE
:1032D0006D1E002DF4D100BF002028F815000DB997
:1032E000062099E70B22202109F1200001F02DFB97
:1032F000002600E0761C38F816002028FAD038F8AE
:1033000016002E28F6D00EB147F0030700E06D1E20
:1033100025B1681E38F810002E28F8D14FF0000AA9
:10332000D3460820029000BF3046761C38F8104083
:1033300004B954E0202C03D02E2C04D1AE4202D08C
:1033400047F00307F0E70298834501D2AE4216D159
:1033500002980B2802D147F0030740E0AE4201D0AB
:1033600047F00307AE4200D939E02E464FF0080B74
:103370000B2002904FEA8A604FEA106AD4E7802C53
:103380000BDB0021204600F0D5FE04461CB1A4F161
:1033900080002C490C5C47F0020700BF24B1214695
:1033A00029A0FFF70FFE18B15F2447F003070FE0D5
:1033B000412C04DB5A2C02DC4AF0020A08E0612CA2
:1033C00006DB7A2C04DC4AF0010AA4F1200084B266
:1033D00058460BF1010B09F120010C54A4E700BF82
:1033E00099F82000E52802D1052089F820000298EC
:1033F000082803D14FEA8A604FEA106A0AF00C00ED
:103400000C2803D00AF00300032801D147F002077B
:1034100007F0020058B90AF00300012801D147F073
:1034200010070AF00C00042801D147F008072B20F0
:1034300000F809700020EFE6222A3A3C3E3F7C7FEC
:10344000000000006A4D00082B2C3B3D5B5D000036
:103450004FF0E021096921F004014FF0E0221161F1
:103460001146096921F0020111611146096921F033
:10347000010111611146896901F07F419161C1101B
:10348000074A11701146097801EB4102C2EBC111E4
:103490004FF6FF7202EAC101024A11807047000034
:1034A00004000020060000201349098841434FF022
:1034B000E022526961F317024FF0E0214A61096985
:1034C00021F00101491C4FF0E022116100BF4FF0D3
:1034D000E0210969C1F300410029F8D04FF0E02153
:1034E000096921F001014FF0E0221161114689695B
:1034F00001F07F4191617047060000202DE9F04105
:1035000004460E46D4F800800021204600F0CBF996
:103510000546EDB9002700BF4046A16901F01EFA3B
:10352000054605B113E0E0690078E52802D0E069BE
:10353000007820B9781C0746B04201D107E0002787
:103540000121204600F088F80546002DE4D000BF98
:10355000042D00D107252846BDE8F0812DE9F0476C
:103560000446D4F800A00021204600F09CF906464D
:1035700016B13046BDE8F0874FF0FF08C1464FF066
:10358000FF30E06200BF5046A16901F0E7F906464E
:1035900006B15EE0E06905780DB9042659E0E069FE
:1035A000C07A00F03F07A771E52D04D007F00800AE
:1035B00038B10F2F05D04FF0FF084FF0FF30E06219
:1035C00040E00F2F22D12B20005D00F0400098BB7F
:1035D00005F0400038B1E06990F80D9005F0BF05A6
:1035E000A8462069E06245450CD1E069407B48452A
:1035F00008D1E169DAF80C00FFF714FD10B1A8F169
:10360000010000E0FF2000F0FF081BE0B8F1000F10
:1036100005D1E06901F009FB484500D119E02B20F4
:10362000005D00F0010040B90B2204F12001E069C7
:1036300001F06CF908B90CE004E04FF0FF084FF01E
:10364000FF30E0620021204600F006F80646002E1A
:1036500099D000BF30468DE72DE9F04704468946F2
:103660002568206900F12007A06910B1B7F5001F97
:1036700002D30420BDE8F087C7F30800002868D112
:10368000A069401CA061606938B92889B0EB571F58
:103690005FD80020A0610420ECE76889401E00EAA2
:1036A0005720002855D12046616900F0FFFF0646EB
:1036B000012E01D80220DDE7701C08B90120D9E7EE
:1036C000E869B0423FD8B9F1000F03D10020A061F2
:1036D0000420CFE720466169FFF706FD06460EB9D4
:1036E0000720C7E7012E01D10220C3E7701C08B9EB
:1036F0000120BFE7284601F0F1FA08B10120B9E73F
:103700004FF40072002105F1380001F01EF94FF06E
:10371000000831462846FFF778FC68630CE001207A
:10372000E870284601F0DAFA08B10120A2E708F1B2
:103730000108686B401C686368894045EFD8686B76
:10374000A0EB08006863666131462846FFF75DFC20
:10375000A0612761C7F3080105F138000844E06162
:10376000002087E72DE9FE4F044626682B20005DE8
:1037700000F0A00010B10620BDE8FE8F4FF0000958
:1037800001E009F10109F06830F819000028F8D1CA
:103790000C2204F12001684601F0CAF89DF80B00E4
:1037A00000F0010028B340212B2001554FF0010803
:1037B0000EE04346694604F12000F26800F01CFF69
:1037C0002046FFF7CBFE054605B104E008F10108ED
:1037D000B8F1640FEDD300BFB8F1640F01D1072039
:1037E000CAE7042D01D02846C6E79DF80B102B2010
:1037F00001559DF80B0000F0020030B109F10C00FA
:103800000D21B0FBF1F0401C00E0012007463946D5
:103810002046FFF773FE05464DBB781E071E26D0D7
:103820002069A0EB4711204600F03DF80546F5B9A8
:1038300004F1200001F0F9F9824600BF3046A16989
:1038400001F08CF8054605B110E0FAB2E169534683
:10385000F06801F039F90120F07000212046FFF7EF
:10386000FBFE054615B9781E071EE7D100BFC5B996
:103870003046A16901F072F8054695B92022002171
:10388000E06901F062F80B2204F12001E06901F027
:103890004FF82B20005D00F01800E169087301204B
:1038A000F070284668E72DE9F04104460D46266889
:1038B000B5F5001F02D205F01F0010B10220BDE8CF
:1038C000F0812561A7681FB93078032800DBF76A0B
:1038D00047B93089B0EB551F01D80220EFE7F06AF5
:1038E000A0611CE070894FEA402811E0394620466B
:1038F00000F0DCFE0746781C08B90120DFE7022F44
:1039000002D3F069B84201D80220D8E7A5EB080538
:103910004545EBD239463046FFF777FBA06167613A
:10392000A06908B90220CAE7A06900EB5520A06190
:10393000C5F3080106F138000844E0610020BEE745
:103940000146002070470346002070472DE9FC41E6
:1039500007460C4615461E464FF4007069020A469B
:103960000023CDE900062046FFF726F810B101201C
:10397000BDE8FC81FFF7FCF800BFFEF7F6FC00286D
:10398000FBD100BFF4E70146002070472DE9FC4160
:1039900007460C4615461E464FF4007069020A465B
:1039A0000023CDE900062046FFF762F910B101209F
:1039B000BDE8FC81FFF71CF900BFFEF7D6FC00282C
:1039C000FBD100BFF4E738B50546284600F061FB9F
:1039D00004463CB96946284601F0A9F904460CB9E9
:1039E00000202860204638BD2DE9F04F89B00446FC
:1039F0000D4607A9204601F09AF90890089810B9D9
:103A0000607C089018B1089809B0BDE8F08FA06AF2
:103A100000287CD0681C002843D1D4F828A05AF88C
:103A2000040B029002200190A76867B300BF0397C0
:103A3000002004900198801C019000BF0597049815
:103A4000401C04903946204600F030FE0746012F06
:103A500002D802206074D7E7781C10B90120607486
:103A6000D2E70598401C8742E8D0DDE90101884291
:103A700005D804984AF8040B03984AF8040B0798F1
:103A8000C069B842D3D80198A16A0860DDE9010194
:103A9000884203D80020CAF80000FAE011200890FC
:103AA000F7E0E068A84200D2E5686561002DF4D037
:103AB000691E2046FFF790FAA061A1690798FFF7F9
:103AC000A4FA8146B9F1000F02D1022060749BE78D
:103AD00007984089401E691E00EA51208144A08A4F
:103AE000C0F308000028D8D0E0694845D5D0207C34
:103AF00000F0800080B1E26907994878012304F161
:103B00002C01FFF743FF18B1012060747CE712E03D
:103B1000207C00F07F0020740799487801234A46F2
:103B200004F12C01FFF712FF10B1012060746BE764
:103B3000C4F81C90ADE0E068A84204D2207C00F0FC
:103B4000020000B9E568606906904FF0000BC4F808
:103B500014B0002D6AD0079840894FEA4028069893
:103B600090B1681EB0FBF8F10698401EB0FBF8F06B
:103B7000814209D30698401EA8F101018843606183
:103B800060692D1AA66912E0A6687EB90021204658
:103B9000FFF7AAFA0646012E02D10220607433E72D
:103BA000701C10B9012060742EE7A660A661D6B320
:103BB00025E0A5EB0805606940446061207C00F0C9
:103BC000020040B100BF31462046FFF78DFA06469D
:103BD00036B9002515E03146204600F067FD06465F
:103BE000701C10B9012060740EE7012E03D90798EC
:103BF000C069B04202D80220607405E7A66145455D
:103C0000D7D800BF606928446061C5F3080050B18F
:103C100031460798FFF7F9F98346BBF1000F03D14E
:103C200002206074F0E601E00BEB552BE16860695F
:103C3000884205D96069E060207C40F04000207433
:103C4000A08AC0F3080020B3E069584521D0207C49
:103C500000F0800078B1E26907994878012304F107
:103C60002C01FFF793FE10B101206074CCE6207C9C
:103C700000F07F0020740799487801235A4604F128
:103C80002C01FFF763FE10B101206074BCE6C4F89C
:103C90001CB00898B8E60000F7B582B01646039845
:103CA000019001A800F074FD0546002D02DA0B20FA
:103CB00005B0F0BD0E4850F825400CB10020207032
:103CC000029810B10020029908700949029841F841
:103CD0002500029808B1012E01D00020E8E700225B
:103CE00002A903A800F09EFA07463846E0E7000064
:103CF000F00800202DE9F74F8EB0044616461CB997
:103D0000092011B0BDE8F08F06F03F06324601A948
:103D10000FA800F087FA0546002D70D10198029097
:103D200002A80F9900F000FC05462DB99DF833005C
:103D300000F0800000B1062506F01C00002856D0D7
:103D400045B1042D03D102A8FFF70CFD054646F04E
:103D500008060AE09DF80E0000F0110008B10725E2
:103D600003E006F0040000B10825002D51D106F053
:103D7000080000284DD000F009FD0090099901F1DC
:103D80000E00009900F03FFF099901F1160000991B
:103D900000F039FF20200999C8720999019800F0B4
:103DA00032FD814600220999019800F01AFF099915
:103DB00001F11C00002100F026FF01200199C870CC
:103DC000B9F1000F25D00198406B009000224946C0
:103DD00002A800F0B9FE0546DDB9DDE9001000F0EB
:103DE000BDFD0546A9F101000199086111E085B901
:103DF0009DF80E0000F0100010B1042509E05FE00E
:103E000006F0020028B19DF80E0000F0010000B19C
:103E100007254DB906F0080008B146F040060198A4
:103E2000406B206209986062002D57D10999019872
:103E300000F0E9FCA060099901F11C0000F0F6FC1B
:103E4000E0600020A062019820600198C088A080F6
:103E5000267400206074E06160614FF400720021FC
:103E600004F12C0000F071FD06F0200040B3E06882
:103E700030B3E0686061019840894FEA402AA76842
:103E8000D4F80C800CE03946204600F00FFC0746C1
:103E9000012F00D80225781C00B90125A8EB0A08DB
:103EA0000DB9D045EFD8A76155B9C8F3080038B1AE
:103EB00039460198FFF7A9F8B0F1000B01D10225AE
:103EC0000CE00BEB5820E061E2690199487801238E
:103ED00004F12C01FFF73AFD00B101250DB10020DE
:103EE000206028460DE72DE9FF4F85B004461546B2
:103EF0009A46DDF818B00020CAF8000003A9204651
:103F000000F015FF0490049810B9607C049018B17B
:103F1000049809B0BDE8F08F207C00F0010008B9DA
:103F20000720F6E76169E068401A01900198854230
:103F300000D9019DA8E0A08AC0F30800002874D130
:103F400003984089401E616900EA5129B9F1000FC8
:103F50001FD1606910B9A06802900CE0A06A28B176
:103F600020466169FFF738F8029004E02046A16915
:103F700000F09CFB02900298022802D2022060749A
:103F8000C7E70298401C10B901206074C1E702988D
:103F9000A061A1690398FFF738F8064616B9022018
:103FA0006074B6E74E444FEA5528B8F1000F29D0A7
:103FB00009EB080003994989884203D9039840898D
:103FC000A0EB090803994878434632465946FFF763
:103FD000BDFC10B1012060749BE7207C00F08000E4
:103FE00068B1E069801B404509D2E169891B0BEB90
:103FF00041204FF4007204F12C0100F099FC4FEACB
:10400000482737E0E069B04220D0207C00F08000F3
:1040100080B1E26903994878012304F12C01FFF78C
:10402000B5FC18B10120607473E710E0207C00F04B
:104030007F002074039948780123324604F12C0153
:10404000FFF784FC10B10120607462E7E661A08A8A
:10405000C0F30800C0F50077AF4200D92F46A08A10
:10406000C0F3080204F12C0011183A46584600F03B
:104070005FFC00BFBB44606938446061DAF800004F
:104080003844CAF80000ED1B002D7FF454AF002027
:104090003FE7F8B504466946204600F048FE06466C
:1040A000002E44D1207C00F0400000283FD0207C2E
:1040B00000F0800070B1E26900994878012304F1B2
:1040C0002C01FFF763FC08B10120F8BD207C00F053
:1040D0007F00207400F05AFB0746216A009800F028
:1040E0003DFC06461EBB656AE87A40F02000E87297
:1040F0002946A268206800F074FD05F11C00E16803
:1041000000F081FD394605F1160000F07CFD00212C
:1041100005F1120000F083FD01200099C87000989D
:1041200000F094FD0646207C00F0BF00207430466D
:10413000CBE7000010B50246802A01DA10461BE0EA
:1041400051B1FF2A01DD002304E0A2F180030B4CF2
:1041500034F8133018460FE0002007E0074B33F81F
:104160001030934200D103E0431C98B28028F5DB65
:1041700000BF00F18003D8B210BD0000144E00084B
:1041800030B5B0F5805F01DA244D00E0244D2946BA
:1041900000BF31F8022B0AB1904200DA3CE031F85E
:1041A000023B1C12DBB2D518854230DD092C2CD223
:1041B000DFE804F005090F13171B1F232700851ADA
:1041C00031F8150021E0851A05F00105451BA8B25C
:1041D0001BE0A0F11005A8B217E0A0F12005A8B2DD
:1041E00013E0A0F13005A8B20FE0A0F11A05A8B2C3
:1041F0000BE000F10805A8B207E0A0F15005A8B255
:1042000003E0A0F5E355A8B200BF00BF04E0002C16
:10421000BFD101EB4301BCE700BF30BD144F000824
:10422000065100082DE9F74F8AB000210B98016074
:104230000A9800F0ADFA08900898002803DA0B20DD
:104240000DB0BDE8F08FB349089851F820400CB983
:104250000C20F5E70B9804600C9800F0FE000C9021
:10426000207878B16078FFF78EFB814609F0010075
:1042700040B90C9820B109F0040008B10A20DFE72A
:104280000020DDE700202070089860706078FFF75C
:1042900057FB814609F0010008B10320D0E70C98D4
:1042A00020B109F0040008B10A20C9E70027394607
:1042B0002046FEF749FE0546022D01D02EDA2DE0FC
:1042C000002614E04FF4DF7000EB061104F1380013
:1042D000084409900998007920B10998083000F045
:1042E000A5FA00E0002002A941F82600761C042E61
:1042F000E8D3002606B1761E00BF02A850F826704B
:1043000027B139462046FEF71FFE00E00320054690
:10431000022D03DB701C06460428EED3042D01D1C8
:1043200001208DE7022D01DB0D2089E704F1430018
:1043300000F088FAB0F5007F01D00D2080E704F18D
:104340004E0000F07FFA8046B8F1000F04D104F16E
:104350005C0000F06BFA8046C4F820804820005DC5
:10436000A070A078012804D0A078022801D00D20E8
:1043700066E7A07808FB00F84520005D6081608951
:1043800018B16089411E084008B10D2058E704F1BA
:10439000490000F057FA2081207A00F00F0008B1A0
:1043A0000D204DE704F14B0000F04CFA8246BAF1C3
:1043B000000F04D104F1580000F038FA824604F1ED
:1043C000460000F03FFA0190019808B90D2037E748
:1043D00001984044218900EB11100790079882450D
:1043E00001D20D202CE70798AAEB00006189B0FBF1
:1043F000F1FBBBF1000F01D10D2021E703254FF6A2
:10440000F570834500D8022540F6F570834500D845
:1044100001250BF10200E061676201983844A06257
:10442000079838442063032D13D104F1620000F093
:1044300009FA08B10D2003E7208908B10D20FFE635
:1044400004F1640000F0F2F9E062E0698000069097
:1044500014E0208908B90D20F2E6A06A4044E06229
:10446000022D02D1E069400007E0207F00F001004A
:10447000E16901EB410100EB51000690216A0698C9
:1044800000F2FF10B1EB502F01D20D20D8E64FF013
:10449000FF306061206180202071032D2CD104F158
:1044A000680000F0CFF9012826D1791C204600F0E1
:1044B00055FA08BB0020207104F2362000F0C2F942
:1044C0004AF65521884217D104F1380000F0AEF9C0
:1044D0001149884210D104F5077000F0A7F90F497F
:1044E000884209D104F5087000F0A0F9606104F574
:1044F000097000F09BF92061257009480088401C74
:1045000080B207490880E0800648E0600020A06192
:1045100000BF95E6F008002052526141727241617D
:1045200076000020FC0800202DE9F34104462746D0
:10453000D7F80080019800782F2807D001980078DC
:104540005C2803D0D8F81800B8600DE002E00198AC
:10455000401C0190019800782F28F8D0019800782D
:104560005C28F4D00020B86001980078202808D298
:1045700080212B20015500212046FFF794F90546A4
:1045800037E000BF01A92046FEF71EFE054605B133
:104590002EE02046FEF7E2FF05462B20065D95B192
:1045A000042D0FD106F0200040B106F0040000B940
:1045B000E8E780212B200155002503E006F00400E8
:1045C00000B9052514E006F0040000B110E0B87948
:1045D00000F0100008B905250AE0208AC0F308029F
:1045E00008F138001118404600F00DF9B860C9E72D
:1045F00000BF2846BDE8FC812DE9FF4F83B081460E
:1046000090461D460B224846049900F091F9052D6D
:1046100018D92F4611E038F802BB00240BE05846A9
:1046200067F35F0007464FEA6B0B07F4803008B171
:104630001D484740641C102CF1D3B8F80000002836
:10464000E9D13D46072400BF05F00F0000F1300A14
:10465000BAF1390F03DD0AF1070000F0FF0A204626
:10466000641E01A901F800A02D09002DECD17E20C7
:104670000855002600E0761CA64203D219F8060071
:104680002028F8D100BF082C04D22046641C01A9C0
:10469000085C00E020203146761C09F80100082E55
:1046A000F1D307B0BDE8F08F211001002DE9F047EC
:1046B00081460C46D9F80050022C02D3E869A0428A
:1046C00002D84FF001085EE04FF0FF38287801284B
:1046D00004D002282CD0032851D13CE0264606EB1A
:1046E0005606A86A00EB5621284600F037F900B1BB
:1046F00048E03046761CC0F3080105F13800475CFD
:10470000A86A00EB5621284600F028F900B139E0EC
:10471000C6F3080105F13800405C47EA002704F0C1
:10472000010008B1380901E0C7F30B00804629E019
:10473000A86A00EB1421284600F010F900B121E02E
:1047400040F2FF1101EA440205F13801501800F06F
:1047500079F8804616E0A86A00EBD411284600F0EC
:10476000FDF800B10EE040F2FF1101EA840205F10C
:104770003801501800F05AF820F0704802E04FF06D
:10478000010800BF00BF4046BDE8F0870020704729
:1047900070B502464FF0FF301568EDB1116800E0CA
:1047A000491C0D78202D02D30D783A2DF8D10D78C3
:1047B0003A2D0FD1146814F8015BA5F130030A2BD0
:1047C00007D28C4205D1032B03D218464D1C294633
:1047D000156070BD014D287800BFFAE77800002011
:1047E0002DE9F04105460C461646002707E028460D
:1047F000FEF764FC2070641C6D1C781CC7B2B742C5
:10480000F5DBBDE8F08170B505460C4604F11A00F1
:1048100000F018F806462878032805D104F11400A2
:1048200000F010F846EA0046304670BD0146C878F0
:104830008A7842EA00204A7842EA00200A7842EA6E
:1048400000207047014648780A7842EA0020704705
:104850004FF44070FDF7F2F9A820FEF7F9FDFBF7E1
:104860002DFD01202449887204200872002048721E
:10487000FDF78AFD214908700846007880B94FF499
:104880009A70FBF749FF1E49087000201D49087007
:104890001B4800781849C8720846FCF77DFD0DE0FA
:1048A00041F2352014494860002016490870144828
:1048B00000781149C8720846FCF76EFD1AE01148ED
:1048C0000078B8B100200F4908700D4800780A49F7
:1048D000C8720D480078401C0B49087008460078E3
:1048E000052190FBF1F201FB120007490870024814
:1048F000FCF752FDE3E700009400002002000020D6
:10490000010000206C00002000000020F0B50346EC
:104910001D460C46002000BF15F8017B14F801CBA2
:10492000A7EB0C00561E321E01D00028F4D0F0BDBB
:1049300030B503460C463AB100BF14F8015B03F8EA
:10494000015B551E2A1EF8D130BD10B5034600BFCD
:1049500003F8011B541E221EFAD110BD70B5044687
:104960000D460026606BA84210D0204600F0B6F934
:1049700006465EB9607801232A4604F13801FEF745
:10498000E5FF10B14FF0FF3501266563304670BD7D
:104990002DE9F04704460D4616464FF00209022D58
:1049A00074D3E069A84271D92078012804D0022884
:1049B00049D003280DD15EE02F4607EB5707A06AC8
:1049C00000EB57212046FFF7C9FF8146B9F1000FE0
:1049D00000D075E038467F1CC0F3080104F13800B0
:1049E00001EB000805F0010028B1F1B298F80000D1
:1049F00061F31F1000E0304688F800000120E070ED
:104A0000A06A00EB57212046FFF7A8FF8146B9F1C5
:104A1000000F00D054E0C7F3080104F1380001EBA7
:104A2000000805F0010010B1C6F3071006E098F881
:104A3000000000F0F000C6F30321084388F80000EE
:104A40000120E0703CE0A06A00EB15212046FFF752
:104A500085FF8146B9F1000F00D031E0B1B240F2DC
:104A6000FF1202EA450304F13802981800F0D7F863
:104A70000120E07024E0A06A00EBD5112046FFF78A
:104A80006DFF8146B9F1000F01D019E019E040F245
:104A9000FF1101EA850204F138015018FFF7C6FE44
:104AA00066F31B00064640F2FF1101EA850204F19D
:104AB00038015018314600F0A6F80120E07000BF20
:104AC00000BF4846BDE8F0872DE9F04707460C4691
:104AD0001546984684F80D800F20E0720020207360
:104AE000002104F11A0000F09AF8681E00EB800122
:104AF00001EBC00900200646824600BF4FF6FF705A
:104B0000864204D0484609F1010937F810600D4982
:104B100011F80A100819314600F081F80EB94FF665
:104B2000FF760AF1010082460D28E7D34FF6FF70A9
:104B3000864202D037F8190008B945F040052570C3
:104B4000BDE8F087EA4D00082DE9F04781460E46A2
:104B500017464FF00008D9F80040022E02D3E06952
:104B6000B04202D80220BDE8F08767B100BF4FF025
:104B7000FF3239462046FFF70BFF8046B8F1000FA1
:104B800001D04046EFE700BF31464846FFF78EFDB3
:104B9000054605B922E0012D01D10220E3E7681C9A
:104BA00008B90120DFE7002231462046FFF7F0FE7A
:104BB0008046B8F1000F01D04046D4E7E069801E7E
:104BC0006169814206D26069401C6061207940F0D1
:104BD000010020712E46E069B042D5D800BF002008
:104BE000C1E770B506460C461546A9B204F11A0095
:104BF00000F015F83078032804D1290C04F11400D2
:104C000000F00DF870BD00F8011B090A00F8011B47
:104C1000090A00F8011B090A00F8011B704700F897
:104C2000011B091200F8011B704730B50146002036
:104C30000B2200BF431003EBC01411F8015B631992
:104C4000D8B2531E1A1EF5D130BD000070B504460F
:104C5000204600F043F80546002D38D1207803287F
:104C60002ED1207901282BD14202002104F13800F5
:104C7000FFF76BFE4AF6552104F23620FFF7CFFF0F
:104C8000144904F13800FFF7BEFF134904F507701B
:104C9000FFF7B9FF04F508706169FFF7B4FF04F589
:104CA00009702169FFF7AFFF606A401C606360789C
:104CB000012304F13801626BFEF768FE00202071C9
:104CC000607800221146FEF73EFE00B1012528461D
:104CD00070BD000052526141727241612DE9F04194
:104CE00004460027E078F8B1656B607801232A4616
:104CF00004F13801FEF74AFE08B1012714E0002054
:104D0000E070A06A281A216A88420DD2A67809E0CC
:104D1000206A0544607801232A4604F13801FEF731
:104D200035FE761E022EF3D23846BDE8F08170B50E
:104D300004460D4684B1206870B12068007858B1EF
:104D40002068C088A188884206D121684878FEF78B
:104D50001AFE00F0010018B100202860092602E0C8
:104D6000206828600026304670BD809A45418E41FB
:104D70008F804545454949498E8F9092924F994F72
:104D8000555559999A9B9C9D9E9F41494F55A5A564
:104D9000A6A7A8A9AAABACADAEAFB0B1B2B3B4B53B
:104DA000B6B7B8B9BABBBCBDBEBFC0C1C2C3C4C52B
:104DB000C6C7C8C9CACBCCCDCECFD0D1D2D3D4D51B
:104DC000D6D7D8D9DADBDCDDDEDFE0E1E2E3E4E50B
:104DD000E6E7E8E9EAEBECEDEEEFF0F1F2F3F4F5FB
:104DE000F6F7F8F9FAFBFCFDFEFF01030507090ED3
:104DF00010121416181C1E000100040010004000C0
:104E00000001000200000100020004000800100080
:104E100020000000C700FC00E900E200E400E00020
:104E2000E500E700EA00EB00E800EF00EE00EC0030
:104E3000C400C500C900E600C600F400F600F20098
:104E4000FB00F900FF00D600DC00A200A300A500D3
:104E5000A7209201E100ED00F300FA00F100D1007B
:104E6000AA00BA00BF001023AC00BD00BC00A10026
:104E7000AB00BB00912592259325022524256125B1
:104E80006225562555256325512557255D255C2529
:104E90005B251025142534252C251C2500253C25B3
:104EA0005E255F255A2554256925662560255025F0
:104EB0006C256725682564256525592558255225C3
:104EC00053256B256A2518250C25882584258C25D6
:104ED00090258025B103DF009303C003A303C30320
:104EE000B500C403A6039803A903B4031E22C60396
:104EF000B50329226122B1006522642220232123E7
:104F0000F7004822B0001922B7001A227F20B20011
:104F1000A025A00061001A03E0001703F8000703B2
:104F2000FF00010078010001300132010601390162
:104F300010014A012E017901060180014D00430252
:104F40008101820182018401840186018701870138
:104F500089018A018B018B018D018E018F019001E6
:104F60009101910193019401F60196019701980135
:104F700098013D029B019C019D0120029F01A0011F
:104F8000A001A201A201A401A401A601A701A701F9
:104F9000A901AA01AB01AC01AC01AE01AF01AF01A7
:104FA000B101B201B301B301B501B501B701B80157
:104FB000B801BA01BB01BC01BC01BE01F701C001CF
:104FC000C101C201C301C401C501C401C701C801B7
:104FD000C701CA01CB01CA01CD011001DD010100E9
:104FE0008E01DE011201F3010300F101F401F4016D
:104FF000F8012801220212013A020900652C3B0245
:105000003B023D02662C3F02400241024102460241
:105010000A015302400081018601550289018A017B
:1050200058028F015A0290015C025D025E025F022B
:1050300093016102620294016402650266026702E2
:10504000970196016A02622C6C026D026E029C014D
:10505000700271029D01730274029F017602770251
:10506000780279027A027B027C02642C7E027F0243
:10507000A60181028202A9018402850286028702BA
:10508000AE014402B101B20145028D028E028F02CF
:1050900090029102B7017B030300FD03FE03FF03AF
:1050A000AC0304008603880389038A03B103110358
:1050B000C2030200A303A303C4030803CC03030039
:1050C0008C038E038F03D8031801F2030A00F9033F
:1050D000F303F403F503F603F703F703F903FA0305
:1050E000FA033004200350041007600422018A04EC
:1050F0003601C1040E01CF040100C004D0044401F4
:105100006105260400007D1D0100632C001E960130
:10511000A01E5A01001F0806101F0606201F0806C1
:10512000301F0806401F0606511F0700591F521F57
:105130005B1F541F5D1F561F5F1F601F0806701FF7
:105140000E00BA1FBB1FC81FC91FCA1FCB1FDA1F03
:10515000DB1FF81FF91FEA1FEB1FFA1FFB1F801F41
:105160000806901F0806A01F0806B01F0400B81FFD
:10517000B91FB21FBC1FCC1F0100C31FD01F0206E6
:10518000E01F0206E51F0100EC1FF21F0100FC1FDB
:105190004E2101003221702110028421010083215F
:1051A000D0241A05302C2F04602C0201672C060134
:1051B000752C0201802C6401002D260841FF1A0382
:1051C00000000000E45100080000002094000000EE
:1051D000282F000878520008940000203C0F00009F
:1051E000382F000801DE0000000000000000000071
:1051F00000000000020000000000000000000000AD
:10520000000000000000000000000000000000009E
:10521000000000000000000000000000000000008E
:10522000000000000000000000000000000000007E
:10523000000000000000000000000000000000006E
:10524000000000000000000000000000000000005E
:10525000000001020304050809000000000000002E
:10526000000000000000000000000000000000003E
:08527000000000000000000036
:040000050800018965
:00000001FF
